{
  "_format": "hh-sol-artifact-1",
  "contractName": "GameManager",
  "sourceName": "contracts/GameManager.sol",
  "abi": [
    {
      "inputs": [
        {
          "internalType": "address",
          "name": "_trustedManager",
          "type": "address"
        }
      ],
      "stateMutability": "nonpayable",
      "type": "constructor"
    },
    {
      "inputs": [],
      "name": "InsuficientGameBalance",
      "type": "error"
    },
    {
      "inputs": [],
      "name": "InvalidPrize",
      "type": "error"
    },
    {
      "inputs": [],
      "name": "NoPrizeOrAlreadyClaimed",
      "type": "error"
    },
    {
      "inputs": [],
      "name": "Unauthorized",
      "type": "error"
    },
    {
      "anonymous": false,
      "inputs": [
        {
          "indexed": false,
          "internalType": "uint256",
          "name": "gameId",
          "type": "uint256"
        },
        {
          "indexed": false,
          "internalType": "uint256",
          "name": "prize",
          "type": "uint256"
        },
        {
          "indexed": false,
          "internalType": "uint256",
          "name": "balance",
          "type": "uint256"
        }
      ],
      "name": "GameCreated",
      "type": "event"
    },
    {
      "anonymous": false,
      "inputs": [
        {
          "indexed": false,
          "internalType": "uint256",
          "name": "gameId",
          "type": "uint256"
        }
      ],
      "name": "GameResult",
      "type": "event"
    },
    {
      "anonymous": false,
      "inputs": [
        {
          "indexed": false,
          "internalType": "uint256",
          "name": "prize",
          "type": "uint256"
        },
        {
          "indexed": false,
          "internalType": "address",
          "name": "winner",
          "type": "address"
        }
      ],
      "name": "PrizeClaimed",
      "type": "event"
    },
    {
      "inputs": [],
      "name": "NFT",
      "outputs": [
        {
          "internalType": "contract IERC721Mintable",
          "name": "",
          "type": "address"
        }
      ],
      "stateMutability": "view",
      "type": "function"
    },
    {
      "inputs": [
        {
          "internalType": "uint256",
          "name": "gameId",
          "type": "uint256"
        }
      ],
      "name": "airdropPrize",
      "outputs": [],
      "stateMutability": "nonpayable",
      "type": "function"
    },
    {
      "inputs": [
        {
          "internalType": "address",
          "name": "newNFTAddress",
          "type": "address"
        }
      ],
      "name": "changeNFTAddress",
      "outputs": [],
      "stateMutability": "nonpayable",
      "type": "function"
    },
    {
      "inputs": [
        {
          "internalType": "address",
          "name": "newManager",
          "type": "address"
        }
      ],
      "name": "changeTrustedManager",
      "outputs": [],
      "stateMutability": "nonpayable",
      "type": "function"
    },
    {
      "inputs": [
        {
          "internalType": "uint256",
          "name": "gameId",
          "type": "uint256"
        }
      ],
      "name": "claimPrize",
      "outputs": [],
      "stateMutability": "nonpayable",
      "type": "function"
    },
    {
      "inputs": [
        {
          "internalType": "uint256",
          "name": "gameId",
          "type": "uint256"
        },
        {
          "internalType": "uint256",
          "name": "prize",
          "type": "uint256"
        }
      ],
      "name": "createGame",
      "outputs": [],
      "stateMutability": "payable",
      "type": "function"
    },
    {
      "inputs": [
        {
          "internalType": "uint256",
          "name": "gameId",
          "type": "uint256"
        }
      ],
      "name": "gamePrize",
      "outputs": [
        {
          "internalType": "uint256",
          "name": "prize",
          "type": "uint256"
        }
      ],
      "stateMutability": "view",
      "type": "function"
    },
    {
      "inputs": [
        {
          "internalType": "uint256",
          "name": "gameId",
          "type": "uint256"
        }
      ],
      "name": "gameWinners",
      "outputs": [
        {
          "internalType": "address[]",
          "name": "winners",
          "type": "address[]"
        }
      ],
      "stateMutability": "view",
      "type": "function"
    },
    {
      "inputs": [
        {
          "internalType": "uint256",
          "name": "",
          "type": "uint256"
        }
      ],
      "name": "games",
      "outputs": [
        {
          "internalType": "uint256",
          "name": "balance",
          "type": "uint256"
        },
        {
          "internalType": "uint256",
          "name": "prize",
          "type": "uint256"
        }
      ],
      "stateMutability": "view",
      "type": "function"
    },
    {
      "inputs": [
        {
          "internalType": "uint256",
          "name": "gameId",
          "type": "uint256"
        },
        {
          "internalType": "address",
          "name": "winner",
          "type": "address"
        }
      ],
      "name": "prizeGameWinner",
      "outputs": [
        {
          "internalType": "uint256",
          "name": "prize",
          "type": "uint256"
        }
      ],
      "stateMutability": "view",
      "type": "function"
    },
    {
      "inputs": [
        {
          "internalType": "uint256",
          "name": "gameId",
          "type": "uint256"
        },
        {
          "internalType": "address[]",
          "name": "_winners",
          "type": "address[]"
        }
      ],
      "name": "publishGameResult",
      "outputs": [],
      "stateMutability": "nonpayable",
      "type": "function"
    },
    {
      "inputs": [],
      "name": "trustedManager",
      "outputs": [
        {
          "internalType": "address",
          "name": "",
          "type": "address"
        }
      ],
      "stateMutability": "view",
      "type": "function"
    }
  ],
  "bytecode": "0x60806040523480156200001157600080fd5b506040516200146a3803806200146a8339818101604052810190620000379190620000e8565b806000806101000a81548173ffffffffffffffffffffffffffffffffffffffff021916908373ffffffffffffffffffffffffffffffffffffffff160217905550506200011a565b600080fd5b600073ffffffffffffffffffffffffffffffffffffffff82169050919050565b6000620000b08262000083565b9050919050565b620000c281620000a3565b8114620000ce57600080fd5b50565b600081519050620000e281620000b7565b92915050565b6000602082840312156200010157620001006200007e565b5b60006200011184828501620000d1565b91505092915050565b611340806200012a6000396000f3fe6080604052600436106100a75760003560e01c80637c0b8de2116100645780637c0b8de2146101d257806386261faf146101fd5780639f92354514610228578063d709815414610251578063d96357091461027a578063e2080beb146102a3576100a7565b8063117a5b90146100ac57806333711cf8146100ea578063340a76ef1461011357806360104cef1461013c57806368010c86146101585780637bdd449c14610195575b600080fd5b3480156100b857600080fd5b506100d360048036038101906100ce9190610cc6565b6102e0565b6040516100e1929190610d02565b60405180910390f35b3480156100f657600080fd5b50610111600480360381019061010c9190610ee2565b610304565b005b34801561011f57600080fd5b5061013a60048036038101906101359190610f3e565b6104fb565b005b61015660048036038101906101519190610f6b565b6105c4565b005b34801561016457600080fd5b5061017f600480360381019061017a9190610cc6565b610673565b60405161018c9190610fab565b60405180910390f35b3480156101a157600080fd5b506101bc60048036038101906101b79190610cc6565b610693565b6040516101c99190611084565b60405180910390f35b3480156101de57600080fd5b506101e7610737565b6040516101f49190611105565b60405180910390f35b34801561020957600080fd5b5061021261075d565b60405161021f919061112f565b60405180910390f35b34801561023457600080fd5b5061024f600480360381019061024a9190610cc6565b610781565b005b34801561025d57600080fd5b5061027860048036038101906102739190610cc6565b61089b565b005b34801561028657600080fd5b506102a1600480360381019061029c9190610f3e565b6108a8565b005b3480156102af57600080fd5b506102ca60048036038101906102c5919061114a565b610970565b6040516102d79190610fab565b60405180910390f35b60026020528060005260406000206000915090508060000154908060010154905082565b60008054906101000a900473ffffffffffffffffffffffffffffffffffffffff1673ffffffffffffffffffffffffffffffffffffffff163373ffffffffffffffffffffffffffffffffffffffff1614610389576040517f82b4290000000000000000000000000000000000000000000000000000000000815260040160405180910390fd5b60005b81518110156104bf57600260008481526020019081526020016000206002018282815181106103be576103bd61118a565b5b60200260200101519080600181540180825580915050600190039060005260206000200160009091909190916101000a81548173ffffffffffffffffffffffffffffffffffffffff021916908373ffffffffffffffffffffffffffffffffffffffff16021790555060026000848152602001908152602001600020600101546002600085815260200190815260200160002060030160008484815181106104685761046761118a565b5b602002602001015173ffffffffffffffffffffffffffffffffffffffff1673ffffffffffffffffffffffffffffffffffffffff16815260200190815260200160002081905550806104b8906111e8565b905061038c565b507fdd70a6ea8a03765f9fb41f847122dcaab5764ecb37187278123ecb3a09180088826040516104ef9190610fab565b60405180910390a15050565b60008054906101000a900473ffffffffffffffffffffffffffffffffffffffff1673ffffffffffffffffffffffffffffffffffffffff163373ffffffffffffffffffffffffffffffffffffffff1614610580576040517f82b4290000000000000000000000000000000000000000000000000000000000815260040160405180910390fd5b80600160006101000a81548173ffffffffffffffffffffffffffffffffffffffff021916908373ffffffffffffffffffffffffffffffffffffffff16021790555050565b803410156105fe576040517f5f12e2ee00000000000000000000000000000000000000000000000000000000815260040160405180910390fd5b8060026000848152602001908152602001600020600101819055503460026000848152602001908152602001600020600001819055507fbd3f84a55fdc44f970adc6ccbaa93e78d7da5f3fc37c4b7da578d47c9ad2e46a82823460405161066793929190611230565b60405180910390a15050565b600060026000838152602001908152602001600020600101549050919050565b60606002600083815260200190815260200160002060020180548060200260200160405190810160405280929190818152602001828054801561072b57602002820191906000526020600020905b8160009054906101000a900473ffffffffffffffffffffffffffffffffffffffff1673ffffffffffffffffffffffffffffffffffffffff16815260200190600101908083116106e1575b50505050509050919050565b600160009054906101000a900473ffffffffffffffffffffffffffffffffffffffff1681565b60008054906101000a900473ffffffffffffffffffffffffffffffffffffffff1681565b60008054906101000a900473ffffffffffffffffffffffffffffffffffffffff1673ffffffffffffffffffffffffffffffffffffffff163373ffffffffffffffffffffffffffffffffffffffff1614610806576040517f82b4290000000000000000000000000000000000000000000000000000000000815260040160405180910390fd5b60005b600260008381526020019081526020016000206002018054905081101561089757610886826002600085815260200190815260200160002060020183815481106108565761085561118a565b5b9060005260206000200160009054906101000a900473ffffffffffffffffffffffffffffffffffffffff166109ce565b80610890906111e8565b9050610809565b5050565b6108a581336109ce565b50565b60008054906101000a900473ffffffffffffffffffffffffffffffffffffffff1673ffffffffffffffffffffffffffffffffffffffff163373ffffffffffffffffffffffffffffffffffffffff161461092d576040517f82b4290000000000000000000000000000000000000000000000000000000000815260040160405180910390fd5b806000806101000a81548173ffffffffffffffffffffffffffffffffffffffff021916908373ffffffffffffffffffffffffffffffffffffffff16021790555050565b60006002600084815260200190815260200160002060030160008373ffffffffffffffffffffffffffffffffffffffff1673ffffffffffffffffffffffffffffffffffffffff16815260200190815260200160002054905092915050565b60006002600084815260200190815260200160002060030160008373ffffffffffffffffffffffffffffffffffffffff1673ffffffffffffffffffffffffffffffffffffffff16815260200190815260200160002054905060006002600085815260200190815260200160002060000154905060008211610a7b576040517f1314196500000000000000000000000000000000000000000000000000000000815260040160405180910390fd5b81811015610ab5576040517f2a1c3a3f00000000000000000000000000000000000000000000000000000000815260040160405180910390fd5b81600260008681526020019081526020016000206000016000828254610adb9190611267565b9250508190555060008373ffffffffffffffffffffffffffffffffffffffff1683604051610b08906112cc565b60006040518083038185875af1925050503d8060008114610b45576040519150601f19603f3d011682016040523d82523d6000602084013e610b4a565b606091505b5050905080610b5857600080fd5b600073ffffffffffffffffffffffffffffffffffffffff16600160009054906101000a900473ffffffffffffffffffffffffffffffffffffffff1673ffffffffffffffffffffffffffffffffffffffff1614610c3c57600160009054906101000a900473ffffffffffffffffffffffffffffffffffffffff1673ffffffffffffffffffffffffffffffffffffffff16636a627842856040518263ffffffff1660e01b8152600401610c09919061112f565b600060405180830381600087803b158015610c2357600080fd5b505af1158015610c37573d6000803e3d6000fd5b505050505b7fbfb36529287d5a1dcbfbbc958f0a7337a1f5bca269edc737da0be1be702f22518385604051610c6d9291906112e1565b60405180910390a15050505050565b6000604051905090565b600080fd5b600080fd5b6000819050919050565b610ca381610c90565b8114610cae57600080fd5b50565b600081359050610cc081610c9a565b92915050565b600060208284031215610cdc57610cdb610c86565b5b6000610cea84828501610cb1565b91505092915050565b610cfc81610c90565b82525050565b6000604082019050610d176000830185610cf3565b610d246020830184610cf3565b9392505050565b600080fd5b6000601f19601f8301169050919050565b7f4e487b7100000000000000000000000000000000000000000000000000000000600052604160045260246000fd5b610d7982610d30565b810181811067ffffffffffffffff82111715610d9857610d97610d41565b5b80604052505050565b6000610dab610c7c565b9050610db78282610d70565b919050565b600067ffffffffffffffff821115610dd757610dd6610d41565b5b602082029050602081019050919050565b600080fd5b600073ffffffffffffffffffffffffffffffffffffffff82169050919050565b6000610e1882610ded565b9050919050565b610e2881610e0d565b8114610e3357600080fd5b50565b600081359050610e4581610e1f565b92915050565b6000610e5e610e5984610dbc565b610da1565b90508083825260208201905060208402830185811115610e8157610e80610de8565b5b835b81811015610eaa5780610e968882610e36565b845260208401935050602081019050610e83565b5050509392505050565b600082601f830112610ec957610ec8610d2b565b5b8135610ed9848260208601610e4b565b91505092915050565b60008060408385031215610ef957610ef8610c86565b5b6000610f0785828601610cb1565b925050602083013567ffffffffffffffff811115610f2857610f27610c8b565b5b610f3485828601610eb4565b9150509250929050565b600060208284031215610f5457610f53610c86565b5b6000610f6284828501610e36565b91505092915050565b60008060408385031215610f8257610f81610c86565b5b6000610f9085828601610cb1565b9250506020610fa185828601610cb1565b9150509250929050565b6000602082019050610fc06000830184610cf3565b92915050565b600081519050919050565b600082825260208201905092915050565b6000819050602082019050919050565b610ffb81610e0d565b82525050565b600061100d8383610ff2565b60208301905092915050565b6000602082019050919050565b600061103182610fc6565b61103b8185610fd1565b935061104683610fe2565b8060005b8381101561107757815161105e8882611001565b975061106983611019565b92505060018101905061104a565b5085935050505092915050565b6000602082019050818103600083015261109e8184611026565b905092915050565b6000819050919050565b60006110cb6110c66110c184610ded565b6110a6565b610ded565b9050919050565b60006110dd826110b0565b9050919050565b60006110ef826110d2565b9050919050565b6110ff816110e4565b82525050565b600060208201905061111a60008301846110f6565b92915050565b61112981610e0d565b82525050565b60006020820190506111446000830184611120565b92915050565b6000806040838503121561116157611160610c86565b5b600061116f85828601610cb1565b925050602061118085828601610e36565b9150509250929050565b7f4e487b7100000000000000000000000000000000000000000000000000000000600052603260045260246000fd5b7f4e487b7100000000000000000000000000000000000000000000000000000000600052601160045260246000fd5b60006111f382610c90565b91507fffffffffffffffffffffffffffffffffffffffffffffffffffffffffffffffff8203611225576112246111b9565b5b600182019050919050565b60006060820190506112456000830186610cf3565b6112526020830185610cf3565b61125f6040830184610cf3565b949350505050565b600061127282610c90565b915061127d83610c90565b9250828203905081811115611295576112946111b9565b5b92915050565b600081905092915050565b50565b60006112b660008361129b565b91506112c1826112a6565b600082019050919050565b60006112d7826112a9565b9150819050919050565b60006040820190506112f66000830185610cf3565b6113036020830184611120565b939250505056fea2646970667358221220f44789f37d94ecb9071b14bff76ad19341302a76035741e5fe72f727ed0d6ee264736f6c63430008120033",
  "linkReferences": {},
  "deployedLinkReferences": {}
}